:020000040800F2
:100000000000022009490008514900085149000830
:1000100051490008514900085149000800000000FA
:10002000000000000000000000000000514900082E
:1000300051490008000000005149000851490008DA
:100040005149000851490008514900085149000828
:100050005149000851490008514900085149000818
:100060005149000851490008514900085149000808
:1000700051490008514900085149000851490008F8
:1000800051490008514900085149000851490008E8
:1000900051490008514900085149000851490008D8
:1000A00051490008514900085149000851490008C8
:1000B000850A0008610A0008C90A000851490008B9
:1000C00051490008514900085149000851490008A8
:1000D0005149000851490008151400085149000809
:1000E0005149000851490008514900083D0A0008DB
:1000F000F5090008190A000851490008514900088B
:100100005149000851490008A50A00085149000852
:100110005149000851490008514900085149000857
:100120005149000851490008514900085149000847
:100130005149000851490008514900085149000837
:100140005149000851490008514900085149000827
:100150005149000851490008514900085149000817
:100160005149000851490008514900085149000807
:1001700051490008514900085149000851490008F7
:08018000514900085149000833
:1001880010B5054C237833B9044B13B10448AFF3C9
:1001980000800123237010BD980400200000000097
:1001A80098650008084B10B51BB108480849AFF31B
:1001B80000800848036803B910BD074B002BFBD02B
:1001C800BDE81040184700BF00000000986500080F
:1001D8009C0400209404002000000000154B002B14
:1001E80008BF134B9D46A3F5803A00218B460F4666
:1001F8001348144A121A04F05FFF0F4B002B00D06B
:1002080098470E4B002B00D098470020002104008F
:100218000D000D48002802D00C4805F0D9F804F06C
:10022800F1FD2000290004F0CDF904F0DBFD00BF4A
:1002380000000800000000000000000000000000AE
:100248009804002080070020D9530008E5530008CF
:10025800044A431E063013F8011F02F8011F8342A7
:10026800F9D17047B3040020044A431E063013F83E
:10027800011F02F8011F8342F9D17047BB04002017
:10028800044A431E063013F8011F02F8011F834277
:10029800F9D17047C3040020044A431E063013F8FE
:1002A800011F02F8011F8342F9D17047CB040020D7
:1002B800394B3A481A68002142F001021A609960E5
:1002C8001A6822F0847222F480321A6058601A6820
:1002D80082B022F480221A60D960009101911A68D4
:1002E80042F480321A601A4603E0009BB3F5A06F0F
:1002F80009D0136803F400330193009B0133009382
:10030800019B002BF1D0244B1B6813F4003318BF5A
:1003180001230193019B012B0BD0214BD3F888209B
:100328004FF0006142F47002C3F88820996002B06F
:100338007047194B1B491A6C1B4842F080521A64CB
:100348000A6842F480420A609A689A609A6842F49D
:1003580000429A609A6842F4A0529A6058601A68FB
:1003680042F080721A601A4611680B4B8901FBD55E
:100378000E4A40F2056111609A6822F003029A6001
:100388009A6842F002029A601A46936803F00C03D6
:10039800082BFAD1C1E700BF003802401030002412
:1003A80000ED00E00070004008544007003C0240A7
:1003B8001848836803F00C03042B28D0082B09D0B5
:1003C800154B144A15499268C2F303128A5CD3404C
:1003D8000B6170474368416813F4800F436818BF86
:1003E8000F4801F03F020CBF0B49B0FBF2F1C3F319
:1003F800881308BFB1FBF2F101FB03F2054B5B6800
:10040800C3F3014301335B00B2FBF3F3D9E7044BB9
:10041800D7E700BF003802400024F40004000020A1
:1004280000127A00014B1868704700BFD4040020FE
:10043800014B5868704700BFD4040020014B9868EE
:10044800704700BFD4040020014BD868704700BF34
:10045800D4040020014B1869704700BFD404002061
:10046800014B5869704700BFD4040020014B186045
:10047800704700BF4C050020014B5860704700BF13
:100488004C050020014B9860704700BF4C050020C8
:10049800014BD860704700BF4C050020014B186025
:1004A800704700BF58050020014B1860704700BF17
:1004B8005C050020014B1868704700BF4C05002000
:1004C800014B5868704700BF4C050020014B9868E5
:1004D800704700BF4C050020014BD868704700BF2B
:1004E8004C050020014B1868704700BF58050020D4
:1004F800014B1868704700BF5C050020014A106076
:1005080018467047D4040020014A90601846704786
:10051800D4040020014AD06018467047D404002053
:10052800014A106118467047D4040020014A5060FF
:1005380018467047D4040020014A50611846704795
:10054800D404002019491A4A0B6C70B443F04003D4
:1005580053264FF47A7584240B641685D56214806B
:10056800938A9BB243F00103938213889BB243F0B2
:1005780001031380114650B1138ADB07FCD50B8A9F
:1005880023F001031B041B0C01380B82F4D108492A
:10059800064A0B8823F001031B041B0C0B80136C09
:1005A80023F04003136470BC704700BF003802405A
:1005B800001800401849194A0B6C70B443F0400306
:1005C8000026542584240B641685D5621480938AEA
:1005D8009BB243F00103938213889BB243F001035B
:1005E8001380114650B1138ADB07FCD50B8A23F020
:1005F80001031B041B0C01380B82F4D10749064A7E
:100608000B8823F001031B041B0C0B80136C23F0D5
:100618004003136470BC7047003802400018004063
:1006280070B40948094B026C53264FF0FF358424F7
:10063800002142F0080202641E85DD621C80998058
:1006480070BC5962704700BF00380240000C00407F
:10065800054A938A9BB243F00103938213889BB2A5
:1006680043F0010313807047000C0040044A506AAD
:10067800138823F001031B041B0C1380704700BF71
:10068800000C0040044A0549136C002023F0400385
:1006980013640860704700BF00380240D40400208B
:1006A800044A0549136C002023F002031364886090
:1006B800704700BF00380240D4040020044A0549AE
:1006C800136C002023F001031364C860704700BF57
:1006D80000380240D4040020044A0549136C002065
:1006E80023F0080313640861704700BF0038024014
:1006F800D40400209549964A0B6C96482DE9F04F92
:1007080043F04003DFF860E20B64BEF800C0924F8C
:10071800924E934D934C1FFA8CFC00234FF0530AD2
:100728004FF47A794FF084084CF0010CAEF800C011
:10073800AEF828A0CEF82C90AEF80080AEF80430C1
:10074800CEF82430BEF814B01FFA8BFB4BF0010B27
:100758004FF0010CAEF814B04FF4006BAEF80CC0BB
:1007680082F82B33C2F804B0BEF800B01FFA8BFB36
:100778004BEA0C0BAEF800B0D1F840E04EF0020E98
:10078800C1F840E0B7F800E01FFA8EFE4EEA0C0E02
:10079800A7F800E0A7F828A0C7F82C90A7F80080D1
:1007A800BB807B62B7F814E01FFA8EFE4EEA0C0E8F
:1007B8004FF0005BA7F814E0A7F80CC082F81D33CF
:1007C800C2F800B0B7F800E01FFA8EFE4EEA0C0E31
:1007D800A7F800E0D1F840E04FF080474EEA0C0E51
:1007E800C1F840E0B7F800E01FFA8EFE4EEA0C0EA2
:1007F800A7F800E0A7F828A0C7F82C90A7F8008071
:10080800BB807B62B7F814E01FFA8EFE4EEA0C0E2E
:100818004FF0805BA7F814E0A7F80CC082F81C33EF
:10082800C2F800B0B7F800E01FFA8EFE4EEA0C0ED0
:10083800A7F800E00F6C47F008070F643788BFB2CD
:1008480047EA0C073780A6F828A0C6F82C90A6F827
:100858000080B3807362B78ABFB247EA0C074FF4CF
:10086800802EB782A6F80CC082F83233C2F804E0B2
:100878003788BFB247EA0C0737800E6C46F080060F
:100888000E642E88B6B246EA0C062E80A5F828A07B
:10089800C5F82C90A5F80080AB806B62AE8AB6B222
:1008A80046EA0C064FF48057AE82A5F80CC082F8D1
:1008B8002C3357602E88B6B246EA0C062E804D6C53
:1008C80045F400354D642588ADB245EA0C05258010
:1008D800A4F828A0C4F82C90A4F80080A380636230
:1008E800A58AADB245EA0C054FF00076A582A4F8BA
:1008F8000CC082F8193316602588ADB245EA0C059C
:1009080025800C6C44F480740C64018889B241EA37
:100918000C010180A0F828A0C0F82C90A0F8008055
:1009280083804362818A89B241EA0C014FF4005402
:100938008182A0F80CC082F82D33546003889BB2E2
:1009480043EA0C030380BDE8F08F00BF0038024083
:1009580000E100E00020004000040040000C0040DE
:10096800001C004000440140001800404FF0804344
:10097800586A70474FF080435B6A834205D3084446
:1009880083422CBF002001207047C0431844814295
:1009980094BF002001207047F0B4114C114B226C19
:1009A8001148002142F0200253274FF47A7684251B
:1009B80022641F85DE621D80998059629A8A92B2EC
:1009C800012542F001024FF400049A829D8180F8CB
:1009D800371344601A8892B22A431A80F0BC7047D1
:1009E800003802400014004000E100E0064B1A8A7B
:1009F800D20707D5054A516821B191690020013114
:100A080091611882704700BF001C0040D404002088
:100A1800064B1A8AD20707D5054A516921B1D1690F
:100A280000200131D1611882704700BF00200040CA
:100A3800D4040020064B1A8AD20707D5054A116844
:100A480021B1116A0020013111621882704700BF7C
:100A580000180040D4040020064B1A8AD20707D594
:100A6800054A916821B1516A00200131516218820A
:100A7800704700BF00040040D40400204FF08043BA
:100A88001A8AD20707D5044AD16821B1916A002091
:100A98000131916218827047D4040020064B1A8AEB
:100AA800D20707D5054A116921B1D16A0020013161
:100AB800D1621882704700BF000C0040D4040020A7
:100AC800054B1A8AD20705D504490A6B0020013262
:100AD8000A631882704700BF00080040D404002051
:100AE800014B186A704700BFD4040020014B986975
:100AF800704700BFD4040020014B586A704700BFFC
:100B0800D4040020014BD869704700BFD4040020EA
:100B1800014B986A704700BFD4040020014BD86A83
:100B2800704700BFD4040020014B186B704700BF0A
:100B3800D4040020012A18D0022A0BD0032A17D186
:100B4800134B9B6A834209D3084483422CBF00207D
:100B5800012070470E4B5B6A8342F5D2C0431844AC
:100B6800814294BF002001207047094B1B6AE9E7C6
:100B7800042A02D1064BDB6AE4E7052A02D1044BBA
:100B88009B69DFE7062A04BF014BDB69DAE700BF90
:100B9800D404002010B5254C202000F097F8636994
:100BA80023F008036361202000F048F9472000F093
:100BB80045F9636943F0080363616420FFF7C2FCE9
:100BC800636923F008036361A02000F037F900F09F
:100BD80021F9636943F008036361636923F008033B
:100BE8006361A12000F02AF900F014F9636943F069
:100BF80008036361636923F008036361A22000F0BE
:100C08001DF900F007F9636943F00803636163693C
:100C180023F0080363618F2000F010F900F0FAF860
:100C2800636943F00803636110BD00BF0010024010
:100C380070B50025244C057045708570636923F0F4
:100C4800080382B063610646A72000F0F7F800F0B9
:100C5800E1F8636943F0080363616420FFF7AAFCC5
:100C68008DF800508DF802508DF80450636923F018
:100C780008036361A92000F0E1F86C460DF1060550
:100C880000F0C8F804F8010BAC42F9D10E4C6369C6
:100C980043F0080363619DF800109DF802209DF859
:100CA800043031707270B370636923F008036361B4
:100CB800202000F0C3F8472000F0C0F8636943F033
:100CC8000803636102B070BD001002404D4A4E48EF
:100CD8004E4B4F492DE9F041146B44F00204146364
:100CE800046844F428640460046A44F4AA0444F4DC
:100CF800A0440462846844F428648460106B40F063
:100D080010001063186840F040001860586820F020
:100D180008005860986840F080009860586940F072
:100D280008005861536C042443F4805353640C80C6
:100D38000B889BB243F440730B800B889BB243F043
:100D480018030B80088882B080B240F040008122EE
:100D58004FF002084FF0080C4FF0100E20274026E5
:100D680008800B468DF802400D468DF800208DF85E
:100D780001808DF803C08DF804E068468DF8057091
:100D88006C468DF806600DF1060192B29A811A89B7
:100D98009607FCD51A891206FCD48C42AA8902D07F
:100DA80014F8012FF1E71A4B6C461D46812292B2C6
:100DB8009A811A899707FCD51A891606FCD48C42A1
:100DC800AA8902D014F8012FF1E7114B81221C46A1
:100DD80092B29A811A899507FCD51A891206FCD411
:100DE8008142A28902D010F8012FF1E7074A53691E
:100DF80023F0080368465361FFF72AFA02B0BDE8FA
:100E0800F08100BF00380240000402400010024098
:100E180000300140084A0023938113899807FCD5C4
:100E2800054A1389D907FCD503490B89024A1B06D1
:100E3800FBD49089C0B2704700300140064A9081C7
:100E480013899907FCD504490B89034A1B06FBD46F
:100E58009089C0B2704700BF00300140084A0023A3
:100E6800938113899807FCD5054A1389D907FCD5BE
:100E780003490B89024A1B06FBD49089C0B270470C
:100E880000380040084A908113899807FCD5064A23
:100E98001389D907FCD504490B89034A1B06FBD4DF
:100EA8009089C0B2704700BF00380040364A3749C1
:100EB800106B374B40F0020010B510630868354CD2
:100EC80040F028400860486A40F0AA4040F4A0007A
:100ED8004862886840F028408860116B41F0100132
:100EE8001163216841F040012160616821F0080127
:100EF8006160A16841F08001A160616941F0080169
:100F08006161116C042041F48041116418801A88D1
:100F180092B242F440721A801A8892B242F02002C9
:100F28001A801A8892B242F040021A80636943F02C
:100F3800080363610020FFF7A5FF0020FFF7A2FF69
:100F48000020FFF79FFF0020FFF79CFFFF20FFF71F
:100F580099FF0020FFF796FF0020FFF793FF00207E
:100F6800FFF790FFFF20FFF78DFFFF20FFF78AFFB5
:100F7800FF20FFF787FFFF20FFF784FF636923F057
:100F88000803636110BD00BF00380240000402403E
:100F980000380040001002401349144A086B144BF3
:100FA80040F00100F0B50863486C124C40F48070C2
:100FB8004864116841F00C011160D16800200127D4
:100FC8004FF4006E21F00C014FF400764FF44035D9
:100FD800D160C3F804E0D860D8625F639E60656042
:100FE8009A683A439A60F0BD003802400000024017
:100FF8000020014000230140054A936843F08043E4
:101008009360136802499B07FBD5C86C80B2704790
:10101800002001401149124B4A6C1248F0B542F4C5
:1010280080724FF4E01E002710264FF400754FF42D
:1010380040344FF4006C4A64C3F804C0C3F80CE0B1
:10104800DF625E639D6044609A6842F001029A60C4
:101058000A20BDE8F040FFF7ADBA00BF00380240F3
:1010680000200140002301401B491C4A4B6843F4FF
:1010780000034B60936843F08043936013681749FB
:101088009B07FBD5CA6C164B134891B240F6B83291
:1010980002FB01F2A3FB0213D21A03EB5203DB0A91
:1010A800A3F53E7307EE903AF8EE677AB0EE047A4D
:1010B800C7EE877A436882B023F400034360B3EE37
:1010C800097A77EE877AFCEEE77ACDED017ABDF8FA
:1010D800040002B0704700BF002301400020014017
:1010E80001011000014B1878704700BF0805002067
:1010F800014B5878704700BF08050020014B9878CD
:10110800704700BF0805002010B5044602F0D4FC63
:10111800FFF780FF1820FFF7D9FD2020FFF7C6FE54
:10112800104A114B116B114841F001011163116C08
:1011380041F4003111641A6842F0A0021A601A6A78
:1011480042F4EE421A629A6842F020029A609A6863
:10115800A4B242F0800242F208019A6004818181BF
:1011680010BD00BF003802400000024000440040AB
:10117800084A0949938923F400531B041B0C402097
:101188009381486093899BB243F4005343F024034E
:10119800938170470044004000E100E0094A0A4991
:1011A800938923F4005323F020031B041B0C4020D5
:1011B8009381C1F8840093899BB243F400539381CF
:1011C800704700BF0044004000E100E003490B887D
:1011D800024A5B06FBD580B290807047004400400D
:1011E8000D4A70B4441E00F2FF350D26104614F85F
:1011F800011F49B113885B06FCD589B28180237829
:101208000A2B03D0AC42F2D170BC704713885B063E
:10121800FCD58680F6E700BF004400400FB42DE9F6
:10122800F0418CB012AB53F8046B01933278BAB129
:10123800754C002327461D4631464FF00D08252AD8
:1012480019D023885806FCD592B2BA800B780A2B9D
:101258000BD00135ADB22B46725D7119002AEED163
:101268000CB0BDE8F04104B0704723885B06FCD59C
:10127800A7F80480EDE733445A78002AE9D0623AA7
:10128800162A79D8DFE802F05C6E4C7828787878EE
:101298007878787878787878781F787878780C0003
:1012A8009B78622B7ED0682B00F08B80772B019B7C
:1012B80000F09C801A1D013D1B680192ADB200939D
:1012C8004FF400604BE0019B1A1D18680192FFF76C
:1012D80087FF0135ADB2BCE7019B073323F0070355
:1012E800D3E900010833420F21F0784E002801931A
:1012F80042EACE0371F10002B8BF43F00043002078
:1013080001F08041009350EA010338D14FF4807016
:1013180002AA694602F0F6F902A8FFF761FFD8E7CA
:101328009B78622B30D0682B53D0772B019B64D0ED
:101338001A1D013D1B680192ADB2009320200EE0FA
:101348009B78622B27D0682B34D0772B019B47D012
:101358001A1D013D1B680192ADB2009304200135AE
:10136800ADB2D5E7019B191D1A78019123885B0658
:10137800FCD593B2BB80ACE700230093A9E7009BA0
:1013880043F080430093C1E7019B1A1D1B6801923B
:1013980000930820E3E7019B1A1D1B680192009344
:1013A8000120DCE7019B1A1D1B68019200934FF492
:1013B8000070D4E7019B1A1D1B680192009302205C
:1013C800CDE7019B1A1D1B68019200934FF48060C2
:1013D800C5E7019B1A1D1B68019200931020BEE708
:1013E8001A1D1B68019200930420B8E71A1D1B6898
:1013F800019200934FF40060B1E71A1D1B68019237
:1014080000932020ABE700BF004400400C4B1A8833
:10141800920614D50B4A9188988810B48BB20A4C5E
:10142800C1B2E15493885DF8044B01339BB29380B9
:1014380093889BB2B3F5007F24BF00239380704745
:1014480000440040080500207405002030B403283B
:101458004ED8DFE810F0E6009B004F000400A048DB
:10146800A04D0268A04BA14C22F0404202600268E5
:1014780042F0804202602A6C22F008022A641A882C
:1014880022F001021204120C1A801A8D22F0530263
:101498001204120C1A85DA6A22F47A72DA621A884D
:1014A80022F084021204120C1A809A8892B29A804E
:1014B8005A6A5A629A8A22F001021204120C9A821B
:1014C8009A8922F001021204120C4FF480259A81A5
:1014D800C4F884501A8822F001021204120C01295F
:1014E8001A8000F0F88019B9436923F40043436176
:1014F80030BC70477A487B4D03687C4C23F04053DE
:101508000360036843F0805303602A6C4FF0804304
:1015180022F001022A641A8822F001021204120C35
:101528001A801A8D22F053021204120C1A85DA6AF4
:1015380022F47A72DA621A8822F084021204120CF7
:101548001A809A8892B29A805A6A5A629A8A22F0C3
:1015580001021204120C9A829A8922F001021204E2
:10156800120C4FF080559A81C4F880501A8822F0E6
:1015780001021204120C01291A8000F09D80002932
:10158800B6D1436923F480434361B1E75448554DCC
:101598000268574B554C22F040620260026842F0E4
:1015A800806202602A6C22F002022A641A8822F001
:1015B80001021204120C1A801A8D22F0530212042E
:1015C800120C1A85DA6A22F47A72DA621A8822F020
:1015D80084021204120C1A809A8892B29A805A6A6B
:1015E8005A629A8A22F001021204120C9A829A898B
:1015F80022F001021204120C4FF000559A81C4F82F
:1016080080501A8822F001021204120C01291A8053
:1016180057D000297FF46CAF436923F4005343612A
:1016280066E72F482F4D0268324B304C22F040724B
:101638000260026842F0807202602A6C22F0400266
:101648002A641A8822F001021204120C1A801A8DD8
:1016580022F053021204120C1A85DA6A22F47A7202
:10166800DA621A8822F084021204120C1A809A880C
:1016780092B29A805A6A5A629A8A22F00102120435
:10168800120C9A829A8922F001021204120C4FF469
:1016980000659A81C4F884501A8822F00102120465
:1016A800120C01291A8011D000297FF421AF436957
:1016B80023F4805343611BE7436943F48043436148
:1016C80016E7436943F40053436111E7436943F460
:1016D800805343610CE7436943F40043436107E7E0
:1016E800000C024000380240000C004000E100E01D
:1016F8000004004000180040F8B5514D514B2C6CC7
:10170800002244F004044FF47A7653272C641F8592
:10171800DE625A639A63DA631A641A8B92B242F0F1
:1017280068021A831A8B92B242F4D0421A839A8BB7
:1017380092B242F068029A839A8B92B242F4D042F3
:101748009A831A8C92B242F4085242F022021A8406
:101758001A8892B242F084021A809A8A92B242F0AF
:1017680001029A821C88C1EB4132C1EB8201A4B20A
:10177800490044F0010431441C808CB2032819D874
:10178800DFE800F0473019022F4B5A6A42F0005246
:101798005A621A6822F040421A601A6842F00042FF
:1017A8001A60FEF799FF274A138C9BB243F48053C3
:1017B80013841464F8BD244B5A6A42F000725A62CA
:1017C8001A6822F040521A601A6842F000521A60F1
:1017D800FEF774FF1B4A138C9BB243F48073138487
:1017E800D463F8BD184B5A6A42F400125A621A6858
:1017F80022F040621A601A6842F000621A60FEF72E
:101808004FFF104A138C9BB243F010031384946368
:10181800F8BD0D4B5A6A42F400325A621A6822F037
:1018280040721A601A6842F000721A60FEF72AFFC6
:10183800044A138C9BB243F0010313845463F8BD2C
:101848000038024000080040000C02402DE9F8432F
:10185800674C684E00276762A58AADB24FF0010851
:1018680045F001054FF0804EA582A4F80C8086F85B
:101878001E73C6F800E0B4F800E0C3EB4335C3EBD1
:1018880085031FFA8EFE561A4EEA080E03FA08F36D
:1018980003F57A73A4F800E0814630469DB2FEF75E
:1018A800E5FD4046FEF72AFE534A136C532043F0E9
:1018B80004034FF47A7113642085E1626763A763B8
:1018C800E7632764238B9BB243F068032383238B4E
:1018D8009BB243F4D0432383A38B9BB243F06803AA
:1018E800A383A38B9BB243F4D043A383238C9BB2E3
:1018F80043F4085343F02203238423889BB243F024
:1019080084032380A38A9BB243EA0803A382238823
:101918009BB243EA08032380B9F1030F19D8DFE823
:1019280009F04A321A02354B5A6A42F000525A629A
:101938001A6822F040421A601A6842F000421A609F
:10194800FEF7CAFE2A4A138C9BB243F480531384D1
:101958001564BDE8F883294B5A6A42F000725A624E
:101968001A6822F040521A601A6842F000521A604F
:10197800FEF7A4FE1E4A138C9BB243F480731384B3
:10198800D563BDE8F8831D4B5A6A42F400125A62C7
:101998001A6822F040621A601A6842F000621A60FF
:1019A800FEF77EFE124A138C9BB243F01003138499
:1019B8009563BDE8F883114B5A6A42F400325A62C3
:1019C8001A6822F040721A601A6842F000721A60AF
:1019D800FEF758FE064A138C9BB243F001033046CB
:1019E8001384FEF743FD0120BDE8F843FEF786BDEA
:1019F8000008004000E100E000380240000C02400E
:101A080070B50F4E33880C46054699B222460D48EC
:101A1800FFF704FC33889BB29C42D8BF2D1909DC20
:101A2800094815F8011BFFF7F9FB338801349BB20D
:101A3800A342F5DA0548BDE87040FFF7EFBB00BFE9
:101A480018000020245600083C56000830560008AC
:101A5800F8B503280FD8DFE800F002874B0F794B61
:101A6800186820F04070186018688A4240F080704A
:101A7800186000F2B680F8BD724B186820F040403C
:101A8800186018688A4240F080401860F3D96E4C9C
:101A98006E4E206CA3F5003340F0080020641888CF
:101AA80080B200244FF0530E40F001004FF47A77D3
:101AB80084251880A3F828E0DF621D809C805C6282
:101AC800988A80B2012540F001004FF4802798825F
:101AD8009D8186F8324377601C88A4B22C43501A43
:101AE8001C80FEF7D5FC2846BDE8F840FEF718BD77
:101AF800544B186820F04050186018688A4240F02B
:101B080080501860B7D9504C504E206C4FF080432D
:101B180040F001002064188880B200244FF0530E72
:101B280040F001004FF47A7784251880A3F828E064
:101B3800DF621D809C805C62988A80B2012540F03B
:101B480001004FF0805798829D8186F81C433760CA
:101B58001C88A4B22C43501A1C80FEF793FC28461C
:101B6800BDE8F840FEF7D6BC364B186820F0406058
:101B7800186018688A4240F0806018607FF67BAF72
:101B8800314C324E206CA3F5023340F00200206441
:101B9800188880B200244FF0530E40F001004FF433
:101BA8007A7784251880A3F828E0DF621D809C805E
:101BB8005C62988A80B2012540F001004FF000571E
:101BC80098829D8186F81D4337601C88A4B22C43F7
:101BD800501A1C80FEF750FC2846BDE8F840FEF776
:101BE80093BC194C194E206CA3F5FA3340F0400011
:101BF8002064188880B200244FF0530E40F0010092
:101C08004FF47A7784251880A3F828E0DF621D80D6
:101C18009C805C62988A80B2012540F001004FF4F4
:101C2800006798829D8186F82B4377601C88A4B250
:101C38002C43501A1C80FEF719FC2846BDE8F840D2
:101C4800FEF75CBC000C02400038024000E100E0F6
:101C5800303803288CBF0020012070473038012815
:101C68008CBF0020012070470D4A135C8B4214D0B2
:101C780030B400231546145C392C03F1010302D952
:101C88002C5C2F2C06D90130145C8C42F3D11846F9
:101C980030BC7047002030BC70470023184670479E
:101CA80074050020312822D0322822D0332822D0AF
:101CB80034281AD0352820D0362820D0372820D0EC
:101CC800382820D0392822D0302822D000F0DF0050
:101CD800412820D0422818D043281ED044281ED09E
:101CE80045281ED046281ED0704704207047012082
:101CF8007047022070470320704705207047062070
:101D0800704707207047082070470B20704709204C
:101D18007047002070470A2070470C2070470D203C
:101D280070470E2070470F20704700BF431E012BDD
:101D38000ED9C31E012B16D9C0F10800002811DDE9
:101D48000E4B0022184403F8012B8342FBD1704745
:101D58000A4BC0F108001844002203F8012B834203
:101D6800FBD170477047054BC0F1080018440022AA
:101D780003F8012B8342FBD1704700BF10050020F8
:101D88002DE9F8432D4C235C8B4280460F4653D0F7
:101D9800034600252646E05C392805F1010502D9ED
:101DA800F15C2F2945D9E05C3F2802D8F15C47292E
:101DB8003FD8E05C5F2802D8F15C672939D8013345
:101DC800E05CB842E7D112B92846BDE8F883284656
:101DD800FFF7ACFF14F80830BB42C5F10806F3D092
:101DE800174BDFF858901E441BE014F808303F2BBF
:101DF80003D819F80830472B1BD814F808305F2B84
:101E080003D819F80830672B13D814F8080008F11C
:101E18000108FFF747FF14F8083006F8010FBB4226
:101E2800D2D014F80830392BDFD919F808302F2B05
:101E3800DBD80020BDE8F8830025C4E7740500203E
:101E48000F050020002908D04FF0010303DD0139F8
:101E580000FB03F3FBD1184670470120704700BF11
:101E68002DE9F04F2DED088B93B00022984D0B9281
:101E78002B889BB299420C4600F38280DFF864A25B
:101E8800834691460B9B632B75D8DFE813F0520409
:101E980044043604280417040904FB036400ED0312
:101EA800DC03CE03BC03AE039D038F037003FB0466
:101EB800E904DA04BA04AB048604740074007400FC
:101EC8007400740074007400740077046904960543
:101ED8008505220574000A05670574003105760535
:101EE80051030D03E002D202C40229031B0374004C
:101EF8003A03B6027400EF01E101C201B401950191
:101F0800870179016B015A014C013E012D01120133
:101F18000401F600E500D700C900BB00AD009F0032
:101F280091007400740074007400740074007400EC
:101F380074007400740074007400740074007400F9
:101F480074007400740074007400740074007400E9
:101F58008900810079001BF80430732B00F07C8520
:101F6800702B00F0B985622B00F0BE856D2B0CBF7D
:101F7800162363230B932B8801349BB2A34281DA87
:101F88005448FFF74BF913B0BDEC088BBDE8F08F50
:101F98005148FFF743F913B0BDEC088BBDE8F08F4B
:101FA8004E48FFF73BF913B0BDEC088BBDE8F08F46
:101FB8001BF804300D2B00F0718663230B932B88DC
:101FC80001349BB2A342BFF65DAFD9E71BF80430DA
:101FD800722B0CBF492363230B932B8801349BB2CC
:101FE800A342BFF64FAFCBE71BF80430202B0CBF42
:101FF800482363230B932B8801349BB2A342BFF67B
:1020080041AFBDE71BF80430702B0CBF4723632397
:102018000B932B8801349BB2A342BFF633AFAFE7D3
:102028001BF804306D2B0CBF462363230B932B88BE
:1020380001349BB2A342BFF625AFA1E71BF80430D9
:10204800652B0CBF452363230B932B8801349BB26C
:10205800A342BFF617AF93E72148FFF7DFF81BF855
:1020680004300D2B00F0228663230B932B88013458
:102078009BB2A342BFF606AF82E71BF80430722B6F
:102088000CBF432363230B932B8801349BB2A342D9
:10209800BFF6F8AE74E71BF80430202B0CBF4223C0
:1020A80063230B932B8801349BB2A342BFF6EAAE9D
:1020B80066E71BF80430732B0CBF412363230B9393
:1020C8002B8801349BB2A342BFF6DCAE58E700BFB1
:1020D8001800002040560008CC640008B8640008C6
:1020E800386400081705002020460D210022FFF75C
:1020F80047FE082800F07B8662230B932B88013467
:102108009BB2A342BFF6BEAE3AE71BF80430202BC1
:102118000CBF3F2363230B932B8801349BB2A3424C
:10212800BFF6B0AE2CE71BF804300D2B00F07A8612
:1021380063230B932B8801349BB2A342BFF6A2AE54
:102148001EE71BF80430722B17BF77223D233E236E
:102158000BF804200B932B8801349BB2A342BFF6E3
:1021680091AE0DE71BF80430202B0CBF3C236323F2
:102178000B932B8801349BB2A342BFF683AEFFE6D4
:102188001BF80430632B0CBF3B2363230B932B8872
:1021980001349BB2A342BFF675AEF1E61BF80430DA
:1021A800742B0CBF3A2363230B932B8801349BB207
:1021B800A342BFF667AEE3E6B44B1A5D0D2A11D011
:1021C800224600211E46985C392801F1010102D9F6
:1021D800B05C2F2806D90132985C0D28F3D1042968
:1021E80040F3C68462230B932B8801349BB2A3422D
:1021F800BFF648AEC4E61BF80430202B0CBF3823CA
:1022080063230B932B8801349BB2A342BFF63AAEEB
:10221800B6E69E4B1A5D202A11D0224600211E46A2
:10222800985C392801F1010102D9B05C2F2806D940
:102238000132985C2028F3D1032940F3B884622343
:102248000B932B8801349BB2A342BFF61BAE97E6D3
:102258001BF80430202B0CBF362363230B932B88E9
:1022680001349BB2A342BFF60DAE89E6884B00222B
:1022780003F8012F5345FBD1204620210122FFF707
:102288007FFD0828099000F2CF83002318461F46D7
:102298009E468049032202230DE0052B00F3FA83B2
:1022A80047EA06074FEA071602D0F7B2082A0ED007
:1022B800013301320131032B0E78EED84EEA060EB7
:1022C8004FEA0E16F4D0082A5FFA86FEF0D1724E55
:1022D8000890012332468020F021A44613EA0E0F0D
:1022E8006E4C14BF1170107001325B00A242DBB259
:1022F800F4D16A480496089E6446012300F1080157
:1023080002464FF080084FF0F00C334214BF82F8B9
:1023180000C082F8008001325B008A42DBB2F4D14F
:102328005F49049E0691012301F1080C0A464FF00B
:10233800F00806E082F8008001325B006245DBB2FB
:102348000BD03B42F6D1802104919DF810101170FA
:1023580001325B006245DBB2F3D1524B069904931C
:1023680093F8148000237278C3F1070C013342FA02
:102378000CFC9A404CEA080C072B5FFA82F886F8A6
:1023880000C006F8018FEED1049B93F81CC000230F
:102398004278C3F10706013342FA06F69A4046EA44
:1023A8000C06072B5FFA82FC067000F801CFEFD10C
:1023B800049B93F8246000234A78C3F10700013393
:1023C80042FA00F09A403043072BD6B2087001F861
:1023D800016FF1D1089B049A47EA0E2743EA0727C1
:1023E800099B17611C4435230B932B88013C01344E
:1023F8009BB2A342BFF646ADC2E51BF80430202BC2
:102408000CBF342363230B932B8801349BB2A34264
:10241800BFF638ADB4E51BF80430202B0CBF2E23D3
:1024280063230B932B8801349BB2A342BFF62AADDA
:10243800A6E51BF80430732B0CBF2D2363230B93E5
:102448002B8801349BB2A342BFF61CAD98E50F4B15
:102458001A5D0D2A11D0224600211E46985C3928A3
:1024680001F1010102D9B05C2F2806D90132985C2C
:102478000D28F3D1042940F35C8362230B932B8846
:1024880001349BB2A342BFF6FDAC79E57405002088
:102498000F050020120500201C050020240500203F
:1024A8002C050020080500201BF80430202B0CBF49
:1024B8002B2363230B932B8801349BB2A342BFF6D3
:1024C800E1AC5DE51BF80430202B0CBF31236323FE
:1024D8000B932B8801349BB2A342BFF6D3AC4FE5D4
:1024E8001BF80430732B00F0C382622B0CBF32231D
:1024F80063230B932B8801349BB2A342BFF6C2AC73
:102508003EE5B64B002203F8012F5345FBD1204688
:102518000D210122FFF734FC082840F2318662239E
:102528000B932B8801349BB2A342BFF6ABAC27E5D3
:10253800AB4B1A5D202A11D0224600211E46985C1A
:10254800392801F1010102D9B05C2F2806D90132DE
:10255800985C2028F3D1032940F3648362230B930A
:102568002B8801349BB2A342BFF68CAC08E59C4B88
:102578001A5D0D2A11D0224600211E46985C392882
:1025880001F1010102D9B05C2F2806D90132985C0B
:102598000D28F3D1032940F3B18262230B932B88D2
:1025A80001349BB2A342BFF66DACE9E41BF80430DA
:1025B800202B0CBF0F2363230B932B8801349BB272
:1025C800A342BFF65FACDBE41BF80430A3F1300292
:1025D800032A00F21F820E220B9207932B880134E4
:1025E8009BB2A342BFF64EACCAE41BF80430202BC2
:1025F8000CBF0D2363230B932B8801349BB2A3429A
:10260800BFF640ACBCE41BF804103039CBB2012B48
:102618000BEB040640F2308262230B932B880134C3
:102628009BB2A342BFF62EACAAE41BF80430202BC1
:102638000CBF0B2363230B932B8801349BB2A3425B
:10264800BFF620AC9CE41BF80430A3F13002032A47
:1026580000F2CC810A220B9207932B8801349BB29B
:10266800A342BFF60FAC8BE41BF80430202B0CBF41
:10267800092363230B932B8801349BB2A342BFF633
:1026880001AC7DE41BF80430202B0CBF0723632327
:102698000B932B8801349BB2A342BFF6F3AB6FE4D4
:1026A8001BF80430642B0CBF062363230B932B8881
:1026B80001349BB2A342BFF6E5AB61E41BF80430DA
:1026C800652B00F0C581692B0CBF402363230B9356
:1026D8002B8801349BB2A342BFF6D4AB50E41BF85D
:1026E8000430702B00F0AA8163230B932B880134EC
:1026F8009BB2A342BFF6C6AB42E41BF804306C2B76
:102708000CBF032363230B932B8801349BB2A34292
:10271800BFF6B8AB34E41BF80430652B0CBF0223BA
:1027280063230B932B8801349BB2A342BFF6AAAB59
:1027380026E41BF804306C2B00F09681682B00F01F
:10274800C781612B00F0CC81772B00F0A382722B1C
:1027580000F0BA81742B0CBF442363230B930AE463
:102768001BF80430612B0CBF202363230B932B88A9
:1027780001349BB2A342BFF685AB01E41BF80430D9
:10278800702B0CBF1F2363230B932B8801349BB240
:10279800A342BFF677ABFFF7F3BB114B1A5D0D2AC7
:1027A80011D0224600211E46985C392801F101010A
:1027B80002D9B05C2F2806D90132985C0D28F3D1D4
:1027C800042940F3108262230B932B8801349BB2B7
:1027D800A342BFF657ABFFF7D3BB00BF0F050020DE
:1027E800740500201BF80430202B0CBF152363232D
:1027F8000B932B8801349BB2A342BFF643ABFFF780
:10280800BFBBBB4B1A5D202A11D0224600211E46B1
:10281800985C392801F1010102D9B05C2F2806D94A
:102828000132985C2028F3D1032940F317826223F0
:102838000B932B8801349BB2A342BFF623ABFFF75F
:102848009FBB1BF80430202B0CBF132363230B936F
:102858002B8801349BB2A342BFF614ABFFF790BBA1
:102868001BF80430A3F13002032A00F2C9801222B7
:102878000B9207932B8801349BB2A342BFF602AB9D
:10288800FFF77EBB1BF80430202B0CBF11236323FA
:102898000B932B8801349BB2A342BFF6F3AAFFF730
:1028A8006FBB944B002203F8012F5345FBD1204600
:1028B8000D210122FFF764FA082840F216836223EB
:1028C8000B932B8801349BB2A342BFF6DBAAFFF718
:1028D80057BB1BF80430202B0CBF242363230B9316
:1028E8002B8801349BB2A342BFF6CCAAFFF748BBA2
:1028F800804B002203F8012F5345FBD120462021AD
:102908000122FFF73DFA082866DC002864D07A4BDC
:10291800049393F800E09F785E7803F10A0103229C
:1029280002230FE0052B00F3BD8047EA0C074FEAAE
:10293800071C04D05FFA8CF7082A00F0BA8001332C
:1029480001320131032B91F800C0EBD84EEA0C0E8E
:102958004FEA0E1CF3D05FFA8CFEEDE71BF804304B
:10296800202B0CBF272363230B932B8801349BB2A6
:10297800A342BFF687AAFFF703BB1BF80430202B3E
:102988000CBF292363230B932B8801349BB2A342EA
:10299800BFF678AAFFF7F4BA1BF80430732B5FD0A0
:1029A800622B0CBF252363230B932B8801349BB226
:1029B800A342BFF667AAFFF7E3BA1BF80430202B3F
:1029C8000CBF212363230B932B8801349BB2A342B2
:1029D800BFF658AAFFF7D4BA62230B932B880134A9
:1029E8009BB2A342BFF64EAAFFF7CABA62230B9363
:1029F8002B8801349BB2A342BFF644AAFFF7C0BAA2
:102A080063230B932B8801349BB2A342BFF63AAAE7
:102A1800FFF7B6BA63230B932B8801349BB2A3420A
:102A2800BFF630AAFFF7ACBA62230B932B880134A8
:102A38009BB2A342BFF626AAFFF7A2BA0BEB040388
:102A48005B780D2B00F0D28463230B93FFF793BAC6
:102A580005230B93FFF78FBA08230B93FFF78BBA65
:102A680022230B93FFF787BA04230B93FFF783BA4C
:102A78002F230B93FFF77FBA73780D2B00F0258572
:102A880062230B932B8801349BB2A342BFF6FAA9A9
:102A9800FFF776BA072B40EA06003FF418AC0001AE
:102AA800C0B203E4072B46EA0C0602D03601F6B2A0
:102AB80042E7049A0444282382F800E0977056708D
:102AC800013C0B93FFF757BA39230B93FFF753BA1F
:102AD80001230B93FFF74FBA0C230B93FFF74BBA65
:102AE8001E230B93FFF747BA10230B93FFF743BA44
:102AF800740500200F050020080500206318A34274
:102B080040F365845B440BEB04070026012213F8AD
:102B1800011D02EB82003039BB4202FB01664FEA1D
:102B28004002F4D1642E40F3348562230B93FFF7FF
:102B380022BA2144A142D8BF00260FDD5C440BEB2A
:102B480001000026012310F8012D03EB8307303A1A
:102B5800A04203FB02664FEA4703F4D11BF8013099
:102B68000D2B00F06F8462230C460B93FFF703BA1A
:102B78002144A142D8BF00260FDD5C440BEB0100C5
:102B88000026012310F8012D03EB8307303AA042F9
:102B980003FB02664FEA4703F4D11BF801300D2B03
:102BA80000F0B38462230C460B93FFF7E4B9631873
:102BB8005E1EA642B8BF4FF000090FDB5B445C44C1
:102BC8004FF00009012213F8011D02EB8200303991
:102BD800A34202FB01994FEA4002F4D1372334465D
:102BE8000B93FFF7C8B92144A142D8BF00260FDDD7
:102BF8005C440BEB01000026012310F8012D03EBC8
:102C08008307303AA04203FB02664FEA4703F4D138
:102C18001BF801300D2B00F0678462230C460B93E0
:102C2800FFF7A9B963185E1EA642B8BF4FF00009A6
:102C38000FDB5B445C444FF00009012213F8011DCF
:102C480002EB82003039A34202FB01994FEA4002AD
:102C5800F4D12A2334460B93FFF78DB963185E1E0F
:102C6800A642B8BF4FF000090FDB5B445C444FF04D
:102C78000009012213F8011D02EB82003039A3423A
:102C880002FB01994FEA4002F4D1142334460B9316
:102C9800FFF771B92C230B93FFF76DB9FEF7E4F931
:102CA8000146A548FEF7BAFAFFF76DB9A34C9FEDA8
:102CB800A4AADFEDA49AFDF76DFF2046FDF7B8FF43
:102CC80094F9023009EE103A94F90130B8EEC99A35
:102CD80008EE903A69EE09AAF8EEE88AF0EE6A7A08
:102CE800E8EEA87A94F9003008EE103A17EE900A48
:102CF80001F02AF941EC100B01F00CFFB8EEC88A7C
:102D080053EC102B18EE100ACDE9042301F01CF93E
:102D1800DDE9042301F096FA01F004FC28EE088AA4
:102D280000EE100A01F012FE7AEE887AB0EE40BA90
:102D380017EE900A01F008F941EC100B01F0EAFED9
:102D480053EC102B18EE900ACDE9042301F0FCF89F
:102D5800DDE9042301F076FA01F0E4FBA8EEA88A85
:102D680000EE100A01F0F2FD18EE100AF0EE40AA8B
:102D780001F0EAF841EC100B01F0CCFE19EE100A54
:102D880055EC104B01F0E0F802460B462046294668
:102D980001F058FA01F0C6FB2BEE0ABA00EE100A51
:102DA80001F0D4FDCBEE297A6AEE8AAA17EE900AD2
:102DB800B0EE408A01F0C8F8CAEEA97A04460D467A
:102DC80028EE0A8A17EE900A01F0BEF8C8EE297AB2
:102DD800CDE9000117EE900A01F0B6F82246CDE9D8
:102DE80002012B465848FEF719FAFFF7CCB80BEB4F
:102DF80004030025D8790734FEF754FF5C442E46B7
:102E080001220135082D02FB006600F0AB8014F8A2
:102E1800010DFEF747FF2B460122013B4FEA021244
:102E2800FBD1EEE7494B4A4A186810605B68494A8B
:102E3800DFF82C811360C3F30F224FEA134A4FEADD
:102E4800104EC2F3001487B2CAF303111FFA83F9B4
:102E5800CEF30115C0F30F204FEA840B01EB810C70
:102E6800C9F30113A3440AF00F01C0F3021405EBE0
:102E7800850A0EF00F05C7F3021ED8F82C6005EB83
:102E88004A0501EB4C0107F00F0A03EB830C00F035
:102E98000F0009F00F0302F00F020EEB8E0E04EB89
:102EA800840400EB440401F1460903EB4C030AEBEC
:102EB8004E0E07F07F0702EB4B0205F1020CA8F853
:102EC8003070C6F814903261F360C6F800E0B5605F
:102ED800746001F2B2712048CDF808E0CDF800C066
:102EE8000194FEF79BF9FFF74EB8002425462746C4
:102EF8001A4A032102230DE0052B15DC45EA0005DB
:102F08004FEA051003D0C5B2082900F0C680013386
:102F180001310132032B1078EED847EA00074FEA57
:102F28000710F4D0C7B2EFE7072B44EA000400F01B
:102F3800B4802401E4B2E7E7986400087807002029
:102F480000003443C3F548404464000800280040AA
:102F58007C070020740700201C640008120500206C
:102F680008050020DFF88082984F404640F8346F0B
:102F780001F070FF4369D0F808A0C468D0F804E0F5
:102F880005680669C8F82C00A3F1460087FB0038DD
:102F980087FB0A3C4FEAEA73C3EBAC0C06F1010964
:102FA800C117C1EBA80187FB09380CEB8C0304930C
:102FB80001EB810BA0EB4B004FEAE97687FB0E3B58
:102FC800049B834AC6EBA8064FEAEE78C8EBAB0829
:102FD80040EA0111AAEB43034FF0CA0B4FF0530A22
:102FE800C2F824B046EA011187FB040BC2F824A0FA
:102FF80087FB057043EA0C13E71706EB860C08EB12
:10300800880AEE17C6EBA000C7EBAB07AEEB4A0E7B
:10301800D668A9EB4C0C48EA03134EEA03134CEAB2
:10302800011C00EB800E07EB8701A4EB410140EA8D
:10303800031047EA0C17A5EB4E0546F0200341EABA
:10304800071145EA0014D360D068614B8506FBD5AB
:10305800DA6842F08002DA601A46D0685C4B4006B3
:10306800FBD54FF4C6021A611A695A4842F41C5239
:1030780042F00F0200251A611C6059609D62DA68EF
:1030880022F08002DA609A68FF2122F400429A60F6
:103098005962FEF7C3F8FEF776BF4F4E4F48726984
:1030A8004F4B504942F008027261026C22F08002D4
:1030B80002641A8822F001021204120C1A801A8D76
:1030C80022F053021204120C1A85DA6A22F47A7278
:1030D800DA621A8822F084021204120C1A809A8882
:1030E80092B29A805A6A5A629A8A22F001021204AB
:1030F800120C9A829A8922F001021204120C4FF4DF
:1031080080509A81C1F884001A8822F001021204C2
:10311800120C1A800020FDF709FA0020FDF7B2FE14
:103128000020FDF7AFFE0020FDF7ACFE0020FDF704
:10313800A9FEFF20FDF7A6FE2046FDF7A3FE2846C0
:10314800FDF7A0FE3846FDF79DFEFF20FDF79AFE2D
:10315800FF20FDF797FEFF20FDF794FEFF20FDF707
:1031680091FE214B214845EA072144EA01211961D2
:10317800FEF754F8736923F008037361FEF703BF81
:103188000020044605461A49032602230CE0052BB5
:1031980014DC44EA02044FEA041202D0D4B2082E26
:1031A80028D0013301360131032B0A78EFD845EADC
:1031B80002054FEA0512F4D0D5B2F0E7072B40EA32
:1031C800020017D00001C0B2E9E700BF6766666673
:1031D80000280040C8620008001002400038024081
:1031E800001C004000E100E00805002040630008E2
:1031F8001205002000230CAE0C93ADF834308DF886
:1032080036300E93ADF83C308DF83E301093ADF863
:1032180044308DF8463032460EA901234FF0800E17
:10322800F0272B4214BF177082F800E001325B00D0
:103238008A42DBB2F5D1134610AF01214FF0800C62
:103248004FF0F00E014214BF83F800E083F800C08D
:1032580001334900BB42C9B2F4D11F460DF1480EF3
:1032680001214FF080084FF0F00C214214BF87F87D
:1032780000C087F80080013749007745C9B2F4D10A
:103288009DF830C000217778C1F1070E013147FA67
:103298000EFE8F404EEA0C0E07295FFA87FC86F86F
:1032A80000E006F801CFEED19DF838E0002156780D
:1032B800C1F10707013146FA07F78E4047EA0E07C2
:1032C80007295FFA86FE177002F801EFEFD19DF823
:1032D800407000215A78C1F10706013142FA06F61A
:1032E8008A403E430729D7B21E7003F8017FF1D107
:1032F80044EA0522A84CA94DA94BAA4940EA022252
:1033080022612A6C22F480722A641A8822F001024F
:103318001204120C1A801A8D22F053021204120C95
:103328001A85DA6A22F47A72DA621A8822F084023A
:103338001204120C1A809A8892B29A805A6A5A62B7
:103348009A8A22F001021204120C9A829A8922F0B7
:1033580001021204120C4FF400509A81C1F8840043
:103368001A8822F001021204120C1A800020FDF7BC
:10337800E3F88D4A536943F0080353610DF13F05A3
:103388000DF1460615F8010FFDF758FDB542F9D1C4
:103398000DF12F050DF1360615F8010FFDF74EFD5D
:1033A800B542F9D10DF137050DF13E0615F8010FBB
:1033B800FDF744FDB542F9D17B4A7C48536923F0B7
:1033C800080353612169FDF729FFFEF7DCBD0021E1
:1033D8000E46079BA3F13004A0B2FEF78DF92146F3
:1033E80032467348FDF71AFFFEF7CDBD7148FDF769
:1033F80015FF7148FDF712FF7048FDF70FFF704881
:10340800FDF70CFF6F48FDF709FF6F48FDF706FF52
:103418006E48FDF703FF6E48FDF700FF6D48FDF7A6
:10342800FDFE6D48FDF7FAFE6C48FDF7F7FE6C48A7
:10343800FDF7F4FE6B48FDF7F1FE6B48FDF7EEFE75
:10344800FEF7A1BD4B46F01AFDF728F8534852493C
:10345800026C664B0D788C784978524F42F08002A6
:1034680002641A8892B24FF0000E42F001024FF047
:1034780053084FF47A7C84201A80A3F82880C3F874
:103488002CC01880A3F804E0C3F824E09A8A92B20A
:1034980001204FF4805C42F001029A82988187F8FB
:1034A8002CE3C7F804C01A8892B2024344EA052400
:1034B80041EA04241A80FDF739F821464A46334682
:1034C8004B48FDF7ABFEFEF75EBD079BA3F130044A
:1034D800A0B289B2FDF7BAFF327846482146303AA1
:1034E800FDF79CFEFEF74FBD079BA3F13004A0B289
:1034F8001FFA89F1B2B2FEF7ABFA21464A463346C3
:103508003D48FDF78BFEFEF73EBD2449244B0A6C6F
:103518002448214C42F480720A641A8892B200212D
:103528004FF0530E42F001024FF47A7784251A8047
:10353800A3F828E0DF621D80998059629A8A92B2C6
:10354800012542F001024FF400579A829D8180F8CC
:103558002D1347601A8892B22A431A8004F11C007E
:10356800FCF79AFE04F11400FCF77EFE4F4604F1C6
:103578002400FCF785FEF01BFCF796FF2846FCF7B5
:10358800DBFF21691D484A463346FDF747FEFEF733
:10359800FABCB1B21DE700BF0805002000380240A0
:1035A8000020004000E100E000100240B063000885
:1035B800CC6200085C560008F0560008FC5700086A
:1035C80098590008E85A0008B05B00082C5D00080C
:1035D800F45D00086C5F0008F85F00089C60000854
:1035E80014610008746100083C620008001C004077
:1035F80068630008A4620008FC620008D863000839
:1036080070B5134C134D2388AA88134801339BB215
:10361800B3F5007F24BF00210B4692B238BF19468C
:1036280093421FBF0D4E425CB2802380435C0D2B3A
:1036380000D070BD0848A96BFEF712FC2388084823
:103648009BB20133AB63BDE87040FDF7E7BD00BF37
:1036580018000020080500207405002000440040E0
:103668002056000810B5054CA16BFEF7F9FB044B7A
:103678001B889BB20133A36310BD00BF080500205F
:1036880018000020F0B40D4A0D4F00F10A0530264D
:10369800914205F8016D08D3312400E01C46891ACF
:1036A800631C9142DBB2F9D22C70A7FB023285422F
:1036B8004FEAD202ECD1F0BC704700BF00CA9A3B77
:1036C800CDCCCCCC70B40B88002509302C46ADB9D4
:1036D8000678302E0FD0D6540B8801339BB20B805E
:1036E80001250134E4B20A2C00F1FF30EFD10021AA
:1036F800D15470BC7047092CF3D1ECE70578D55448
:10370800EAE700BF2DE9F04784B0002310281546EA
:103718001370ADF8023000F0548124D9B0F5007F61
:103728004FD040F28280B0F5806F64D0B0F5006F62
:1037380016D11A4601240B6800E004461B0F092B1A
:1037480003F130008ABF3733A854AB54601C0B68B0
:1037580080B21B0109280B602246EED100232B7290
:1037680004B0BDE8F087022800F0148117D90428B6
:1037780040F024810B6805F1200030243126002B0D
:10378800B4BF167014700B6801325B0082420B6084
:10379800F5D1002385F8203004B0BDE8F087012872
:1037A800DED10B6805F10800302631241F064CBF16
:1037B800147016700B6801325B0082420B60F5D101
:1037C800CCE71A460B680124C3F30313092BD8B2BC
:1037D80000F1300386BF3730A854AB54601C0B6827
:1037E80080B21B0103280B6040F0D1800023AB702E
:1037F80004B0BDE8F0871A460B681446C3F30333D8
:10380800092BD8B200F130038ABF37302B55285521
:1038180001320B6892B21B01042A14460B60EDD1E9
:1038280000232B7104B0BDE8F087202800F0C98080
:10383800B0F5807F94D191ED007AB5EEC07AF1EEC3
:1038480010FA00F1FA80F7EE007AB4EEE77AF1EEBA
:1038580010FA00F1DC8040F301810023B2EE046A23
:1038680067EE867A0133B4EEE77AF1EE10FA9BB28E
:10387800F2EE046AF4DCC7EEA67A5C1EA4B24FF03E
:1038880020080DF10E077949DFF8ECC1384601AE82
:103898004FF0300EC7EE277A9FED757AFCEEE76A97
:1038A80016EE902AF8EE666A77EEE67A67EE877A81
:1038B800FCEEE77A17EE90AA914200F801ED0BD8DA
:1038C8004FF0310900E09946521A09F101038A4282
:1038D800DBB2F8D280F80090ACFB0131B0424FEA7D
:1038E800D101E9D10DF10209494630462A46FFF7D0
:1038F800E9FE5E4ADFF880E139463020524501F89A
:10390800010D0CD84FF0310C00E09C46C2EB0A0ABE
:103918000CF101039245DBB2F7D281F800C0AEFB8F
:1039280002328E424FEAD202E8D12E2349462A4675
:1039380030468DF80730FFF7C5FEBDF80220531C4E
:1039480065219BB2B8F12D0FA954ADF8023058D0BB
:10395800464ADFF824E13020A24207F8010D08D8D2
:10396800312100E01946A41A4B1C9442DBB2F9D26B
:103978003970AEFB0232BE424FEAD202ECD1304679
:1039880049462A46FFF79EFE04B0BDE8F087224666
:10399800044619E70B6805F11000302631241B0492
:1039A8004CBF147016700B6801325B0082420B60CA
:1039B800F5D100232B7404B0BDE8F08708287FF404
:1039C800CFAE0A68002A40DB2849DFF8ACE001AE38
:1039D8000DF10E043027914204F8017D08D83120FA
:1039E80000E01846521A431C8A42DBB2F9D2207012
:1039F800AEFB0131B4424FEAD101ECD10DF102091D
:103A0800BDE7023205F80380ADF80220A0E7DFED3C
:103A1800197AB4EEE77AF1EE10FA24D5F0EE676A77
:103A2800012467EEA67A0134B4EEE77AF1EE10FAD3
:103A3800A4B2F6D44FF02D0823E72D220123B1EECE
:103A4800477A2A70ADF80230FDE62D232B700A68FC
:103A5800012352420A60ADF80230B5E74FF6FF7411
:103A6800DFED047A0BE70124E4E700BF00CA9A3BC4
:103A780000007A44CDCCCC3DCDCCCCCC70B4024641
:103A880000F2014501E0AA4213D0131A12F8014BC3
:103A98009BB2002CF7D101F2014603E0B142C254B7
:103AA800A3B206D00D4611F8012B5C1C002AF5D1F3
:103AB8002A7070BC704700BF234B24481A6C2449F5
:103AC80042F0805210B41A64026842F480720260B4
:103AD8009A6842F400229A601A6F42F440721A6798
:103AE8001A6FCA2442F4004253201A674C62486293
:103AF800CB6843F02003CB60CA68154B9006FBD512
:103B0800DA6842F08002DA60DA6811495206FBD5B9
:103B18004FF4C6030B610B690E4C0F4843F41C535A
:103B280043F00F0300220B610C6048608A62CB6887
:103B38005DF8044B23F08003CB608B68FF2223F4ED
:103B480000438B604A6270470038024000700040B2
:103B58000028004000590800062348002DE9F041DC
:103B680086B0404B40481E680DF11808002208F83E
:103B7800142D0270434606ACC8EB030103F8012B71
:103B8800A3424254F8D106AFC6F3015347F8183D93
:103B9800424620203946FFF7B5FD0DF103053248AE
:103BA8004146FFF76BFF0DF117042B46002203F87F
:103BB800012FA342FBD1C6F30243424620203946D7
:103BC8000093FFF79FFD28484146FFF757FF2B4614
:103BD800002203F8012F9C42FBD1C6F30233424670
:103BE800202039460093FFF78DFD1F484146FFF717
:103BF80045FF2B46002203F8012F9C42FBD1C6F358
:103C080003234246202039460093FFF77BFD1648E0
:103C18004146FFF733FF2B46002203F8012F9C4251
:103C2800FBD1C6F302132020394642460093FFF722
:103C380069FD0D484146FFF721FF002305F8013FC4
:103C4800AC42FBD13946424606F00F0620200096CA
:103C5800FFF758FD41460448FFF710FF024806B039
:103C6800BDE8F0810028004060050020C865000814
:103C78000000002094040020980400208007002001
:103C880081F0004102E000BF83F0004330B54FEA05
:103C980041044FEA430594EA050F08BF90EA020F72
:103CA8001FBF54EA000C55EA020C7FEA645C7FEA05
:103CB800655C00F0E2804FEA5454D4EB5555B8BF28
:103CC8006D420CDD2C4480EA020281EA030382EA99
:103CD800000083EA010180EA020281EA0303362D2B
:103CE80088BF30BD11F0004F4FEA01314FF4801CFE
:103CF8004CEA113102D0404261EB410113F0004F10
:103D08004FEA03334CEA133302D0524263EB4303C6
:103D180094EA050F00F0A780A4F10104D5F1200E64
:103D28000DDB02FA0EFC22FA05F2801841F10001BF
:103D380003FA0EF2801843FA05F359410EE0A5F193
:103D480020050EF1200E012A03FA0EFC28BF4CF0C4
:103D5800020C43FA05F3C01851EBE37101F000457A
:103D680007D54FF0000EDCF1000C7EEB00006EEB87
:103D78000101B1F5801F1BD3B1F5001F0CD3490811
:103D88005FEA30004FEA3C0C04F101044FEA445268
:103D980012F5800F80F09A80BCF1004F08BF5FEAEF
:103DA800500C50F1000041EB045141EA050130BDCF
:103DB8005FEA4C0C404141EB010111F4801FA4F172
:103DC8000104E9D191F0000F04BF01460020B1FAC7
:103DD80081F308BF2033A3F10B03B3F120020CDAFF
:103DE8000C3208DD02F1140CC2F10C0201FA0CF0DD
:103DF80021FA02F10CE002F11402D8BFC2F1200C42
:103E080001FA02F120FA0CFCDCBF41EA0C019040F7
:103E1800E41AA2BF01EB0451294330BD6FEA040440
:103E28001F3C1CDA0C340EDC04F11404C4F120022B
:103E380020FA04F001FA02F340EA030021FA04F33D
:103E480045EA030130BDC4F10C04C4F1200220FA94
:103E580002F001FA04F340EA0300294630BD21FAD2
:103E680004F0294630BD94F0000F83F4801306BF98
:103E780081F480110134013D4EE77FEA645C18BF8C
:103E88007FEA655C29D094EA050F08BF90EA020F23
:103E980005D054EA000C04BF1946104630BD91EA1B
:103EA800030F1EBF0021002030BD5FEA545C05D11E
:103EB8004000494128BF41F0004130BD14F580045D
:103EC8003CBF01F5801130BD01F0004545F0FE41D1
:103ED80041F470014FF0000030BD7FEA645C1ABF06
:103EE800194610467FEA655C1CBF0B46024650EA3D
:103EF800013406BF52EA033591EA030F41F4002169
:103F080030BD00BF90F0000F04BF0021704730B5EE
:103F18004FF4806404F132044FF000054FF00001C3
:103F280050E700BF90F0000F04BF0021704730B584
:103F38004FF4806404F1320410F0004548BF404259
:103F48004FF000013EE700BF42004FEAE2014FEAAE
:103F580031014FEA02701FBF12F07F4393F07F4F89
:103F680081F06051704792F0000F14BF93F07F4FBB
:103F7800704730B54FF4607401F0004521F00041FE
:103F880020E700BF50EA010208BF704730B54FF084
:103F980000050AE050EA010208BF704730B511F089
:103FA800004502D5404261EB41014FF4806404F1C1
:103FB80032045FEA915C3FF4DCAE4FF003025FEA43
:103FC800DC0C18BF03325FEADC0C18BF033202EBCB
:103FD800DC02C2F1200300FA03FC20FA02F001FA25
:103FE80003FE40EA0E0021FA02F11444C1E600BFC4
:103FF80070B54FF0FF0C4CF4E06C1CEA11541DBF77
:104008001CEA135594EA0C0F95EA0C0F00F0DEF841
:104018002C4481EA030621EA4C5123EA4C5350EA26
:10402800013518BF52EA033541F4801143F4801377
:1040380038D0A0FB02CE4FF00005E1FB02E506F008
:104048000042E0FB03E54FF00006E1FB03569CF05D
:10405800000F18BF4EF0010EA4F1FF04B6F5007F63
:1040680064F5407404D25FEA4E0E6D4146EB0606D5
:1040780042EAC62141EA55514FEAC52040EA5E505E
:104088004FEACE2EB4F1FD0C88BFBCF5E06F1ED808
:10409800BEF1004F08BF5FEA500E50F1000041EB3F
:1040A800045170BD06F0004646EA010140EA0200EC
:1040B80081EA0301B4EB5C04C2BFD4EB0C0541EA0E
:1040C800045170BD41F480114FF0000E013C00F323
:1040D800AB8014F1360FDEBF002001F0004170BD47
:1040E800C4F10004203C35DA0C341BDC04F1140460
:1040F800C4F1200500FA05F320FA04F001FA05F2EC
:1041080040EA020001F0004221F0004110EBD370B8
:1041180021FA04F642EB06015EEA430E08BF20EAE4
:10412800D37070BDC4F10C04C4F1200500FA04F387
:1041380020FA05F001FA04F240EA020001F0004119
:1041480010EBD37041F100015EEA430E08BF20EA8C
:10415800D37070BDC4F1200500FA05F24EEA020ED4
:1041680020FA04F301FA05F243EA020321FA04F003
:1041780001F0004121FA04F220EA020000EBD370BA
:104188005EEA430E08BF20EAD37070BD94F0000FBA
:104198000FD101F00046400041EB010111F4801FEE
:1041A80008BF013CF7D041EA060195F0000F18BF9F
:1041B800704703F00046520043EB030313F4801FDB
:1041C80008BF013DF7D043EA0603704794EA0C0F95
:1041D8000CEA135518BF95EA0C0F0CD050EA4106AB
:1041E80018BF52EA4306D1D181EA030101F0004128
:1041F8004FF0000070BD50EA410606BF1046194650
:1042080052EA430619D094EA0C0F02D150EA01365B
:1042180013D195EA0C0F05D152EA03361CBF10469C
:1042280019460AD181EA030101F0004141F0FE413B
:1042380041F470014FF0000070BD41F0FE4141F4BF
:10424800780170BD70B54FF0FF0C4CF4E06C1CEABF
:1042580011541DBF1CEA135594EA0C0F95EA0C0F74
:1042680000F0A7F8A4EB050481EA030E52EA03352F
:104278004FEA013100F088804FEA03334FF0805550
:1042880045EA131343EA12634FEA022245EA11157D
:1042980045EA10654FEA00260EF000419D4208BF2E
:1042A800964244F1FD0404F5407402D25B084FEADB
:1042B8003202B61A65EB03055B084FEA32024FF487
:1042C80080104FF4002CB6EB020E75EB030E22BFE4
:1042D800B61A754640EA0C005B084FEA3202B6EBA4
:1042E800020E75EB030E22BFB61A754640EA5C0053
:1042F8005B084FEA3202B6EB020E75EB030E22BFE3
:10430800B61A754640EA9C005B084FEA3202B6EBE3
:10431800020E75EB030E22BFB61A754640EADC00A2
:1043280055EA060E18D04FEA051545EA16754FEA04
:1043380006164FEAC30343EA52734FEAC2025FEA22
:104348001C1CC0D111F4801F0BD141EA00014FF0B1
:1043580000004FF0004CB6E711F4801F04BF014382
:104368000020B4F1FD0C88BFBCF5E06F3FF6AFAE9E
:10437800B5EB030C04BFB6EB020C5FEA500C50F12E
:10438800000041EB045170BD0EF0004E4EEA1131B1
:1043980014EB5C04C2BFD4EB0C0541EA045170BDB8
:1043A80041F480114FF0000E013C90E645EA060EFC
:1043B8008DE60CEA135594EA0C0F08BF95EA0C0F2A
:1043C8003FF43BAF94EA0C0F0AD150EA01347FF472
:1043D80034AF95EA0C0F7FF425AF104619462CE749
:1043E80095EA0C0F06D152EA03353FF4FDAE1046AC
:1043F800194622E750EA410618BF52EA43067FF4FD
:10440800C5AE50EA41047FF40DAF52EA43057FF48C
:10441800EBAE12E74FF0FF3C06E000BF4FF0010C97
:1044280002E000BF4FF0010C4DF804CD4FEA410CFB
:104438007FEA6C5C4FEA430C18BF7FEA6C5C1BD0C8
:1044480001B050EA410C0CBF52EA430C91EA030F49
:1044580002BF90EA020F0020704710F1000F91EAA6
:10446800030F58BF994208BF90422CBFD8176FEA74
:10447800E37040F0010070474FEA410C7FEA6C5C42
:1044880002D150EA013C07D14FEA430C7FEA6C5C49
:10449800D6D152EA033CD3D05DF8040B704700BF75
:1044A8008446104662468C461946634600E000BFC3
:1044B80001B5FFF7B7FF002848BF10F1000F01BD95
:1044C8004DF808EDFFF7F4FF0CBF012000205DF860
:1044D80008FB00BF4DF808EDFFF7EAFF34BF0120E5
:1044E80000205DF808FB00BF4DF808EDFFF7E0FF7E
:1044F80094BF012000205DF808FB00BF4DF808EDCF
:10450800FFF7CEFF94BF012000205DF808FB00BF35
:104518004DF808EDFFF7C4FF34BF012000205DF817
:1045280008FB00BF4FEA4102B2F1E04324BFB3F5F4
:10453800001CDCF1FE5C0DD901F0004C4FEAC00212
:104548004CEA5070B2F1004F40EB830008BF20F0F6
:104558000100704711F0804F21D113F13872BCBFB0
:1045680001F00040704741F480114FEA5252C2F105
:104578001802C2F1200C10FA0CF320FA02F018BF4E
:1045880040F001004FEAC1234FEAD32303FA0CFCA1
:1045980040EA0C0023FA02F34FEA4303CCE77FEA30
:1045A800625307D150EA01331EBF4FF0FE4040F47A
:1045B8004000704701F0004040F0FE4040F4000029
:1045C800704700BF2DE9F04F5B2089B0FCF79CFDD8
:1045D800FCF7CEFDC04AC14E136BC14CC14D43F030
:1045E80008031363336843F0AA4333607368736046
:1045F800B36843F07F43B360FCF784FA8046FCF766
:104608006FFA0290FCF772FA0190FCF775FA0390C2
:10461800FCF77EFA0490FCF781FA0590FCF784FA1F
:104628004FF001090690B048B346FCF7F7FD04F1D6
:1046380010064F46CA46FBF7F5FE002850D1FBF797
:104648000FFFA0B3FBF754FF062201464046FCF7D4
:1046580071FA60BB6B69BAF1000F00F0EF8043F0AC
:104668000803A24F6B6117F8010FFCF7E7FBB7428D
:10467800F9D1DFF8848208F1070718F8010FFCF771
:10468800DDFBB845F9D1DFF8748208F1070718F89F
:10469800010FFCF7D3FBB845F9D16B6923F0080388
:1046A8006B614FF0000AFCF72DFA07278046FBF7ED
:1046B800BFFE002879D1FBF7C1FE002862D1FBF7C5
:1046C800C3FE00284BD1FBF7C5FE002834D1FBF709
:1046D800A9FEC0B9FEF794FFFBF7A4FE0028AED0F0
:1046E800FBF7E8FE012201460298FCF723FA0028AE
:1046F800A5D1DBF8143083F48053CBF81430FCF7E1
:10470800EFF902909BE7FBF7D5FE012201460698D8
:10471800FCF710FA0028DDD1FBF7CCFE10B1744B82
:1047280064225A63FBF7CCFE10B1714B01225A6325
:10473800FCF7FAF90690CDE7FBF7CEFE0422014616
:104748000598FCF7F7F90028C1D1DBF8143083F499
:104758000043CBF81430FCF7E1F90590B7E7FBF715
:10476800B5FE032201460498FCF7E4F90028AAD113
:10477800DBF8143083F48043CBF81430FCF7C8F925
:104788000490A0E7FBF79CFE022201460398FCF781
:10479800D1F9002893D1DBF8143083F40053CBF817
:1047A8001430FCF7A9F9039089E7FBF79BFE052273
:1047B80001460198FCF7BEF9814600287FF47BAFDB
:1047C800002F5BD0FCF794FC0790FCF797FC019056
:1047D800FCF788FC6B6943F008036B6107464846A1
:1047E800FCF750FB4846FCF74DFB4846FCF74AFBF4
:1047F8004846FCF747FBFF20FCF744FB079AD0B27A
:10480800FCF740FB0199C8B2FCF73CFBF8B2FCF797
:1048180039FBFF20FCF736FBFF20FCF733FBFF20BA
:10482800FCF730FBFF20FCF72DFB6B6923F0080336
:104838004F466B61FCF75AF901903CE72D4F43F066
:1048480008036B61B84618F8010FFCF7F7FAA045A2
:10485800F9D1DFF8A08018F8010FFCF7EFFAA045AE
:10486800F9D117F8010FFCF7E9FAA742F9D16B69FA
:1048780023F008036B614FF0010A14E76B6943F0FA
:1048880008036B61FCF7FEFA3846FCF7FBFA38467A
:10489800FCF7F8FA3846FCF7F5FAFF20FCF7F2FACD
:1048A8003846FCF7EFFA3846FCF7ECFA3846FCF7DE
:1048B800E9FAFF20FCF7E6FAFF20FCF7E3FAFF200D
:1048C800FCF7E0FAFF20FCF7DDFA6B6923F0080338
:1048D8006B610127AEE700BF00380240000C0240C0
:1048E800BA0400200010024020560008C30400202B
:1048F80000080040B3040020BB040020CB040020C3
:10490800002103E00B4B5B58435004310A480B4B22
:1049180042189A42F6D30A4A02E0002342F8043BBE
:10492800084B9A42F9D3FBF7C3FC00F06BFAFFF788
:1049380049FE7047C8650008000000209404002064
:104948009804002080070020FEE7000038B510EE2C
:10495800105A25F00044B4F1A14FF0EE407A0BDB79
:10496800B4F1FF4F58DCDFED547A9FED540A002D67
:10497800C8BFB0EE670A38BD514B9C425DDCB4F14C
:10498800445F4CDB4FF0FF3367EEA75A9FED4D1A9B
:104998009FED4D2A9FED4D3ADFED4D1ADFED4D2A83
:1049A8009FED4D4ADFED4D3A9FED4D5ADFED4D4AF3
:1049B8009FED4D6ADFED4D6A25EEA57A5A1CA7EEEC
:1049C800012AE7EE212AA2EE073AE2EE873AA3EEA1
:1049D800074AE3EE874AA4EE075AE4EE876AA5EE93
:1049E800076A26EE877A66EE256A3ED0404A414934
:1049F8009B001A4476EE876A92ED007A96EEA77AC3
:104A08000B44002D93ED000A77EE677A70EE677A13
:104A180028DBB0EE670A38BD30EE000A38BD9FEDDE
:104A2800367A30EE077AF7EE006AB4EEE67AF1EEFF
:104A380010FAA7DDB0EE670A38BD00F063F82F4B17
:104A48009C4219DCA3F5D0039C422ADCF0EE007AE4
:104A5800BFEE007AA0EE277A002370EE277AC7EE21
:104A6800277A91E7B1EE670A38BD76EE876AB0EE2D
:104A7800670AA6EEE70A38BD214B9C420BDCF7EE2D
:104A8800087AB7EE007AA0EE277A022370EE677AEA
:104A9800C7EE877A78E7FFEE007AC7EE807A0323BD
:104AA80072E7F7EE007A30EE677A70EE277A012324
:104AB800C7EE277A68E700BFDB0FC93FDB0FC9BF26
:104AC800FFFFDF3ED769853C59DA4B3D356B883DA2
:104AD80021A215BD6BF16EBD6E2EBA3D95879DBDA9
:104AE8002549123E388EE3BDABAAAA3ECDCC4CBEBA
:104AF800F464000804650008CAF24971FFFF973F93
:104B0800FFFF1B4010EE103A23F0004300EE103A6E
:104B1800704700BFD0B52DED048BB0EE409AF0EE93
:104B2800609A294C8AB000F053F894F90030B0EE3E
:104B3800408AF0EE608A01330FD0B0EE490AF0EEF9
:104B4800690A00F019F940B10026002751EC190B49
:104B580032463B46FFF7BEFC38B9B0EE480AF0EEE5
:104B6800680A0AB0BDEC048BD0BD184B24780193B9
:104B7800012200238DED049B8DED029B009208938A
:104B88006CB9CDE90667684600F024F988B1089B3E
:104B9800A3B99DED060B0AB0BDEC048BD0BD304621
:104BA800394632463B46FFF74DFB022CCDE906015C
:104BB800E9D100F011F921230360E8E700F00CF9CE
:104BC800089B0360E5E700BF1A0000201465000891
:104BD8002DE9F041674955EC104B0E462940B1428A
:104BE8002B4610EE100A00F09880002D224677DD43
:104BF8002F1500F08280A7F2FF37C3F31303F907DC
:104C080043F4801367D4D10F002601EB43037F10D0
:104C18005200B64616204FF400110EEB01049C42D8
:104C28004FEAD2754FEA420203DC1B1B04EB010E6C
:104C38000E44013805EB43034FEA5101EDD1844698
:104C480020254FF000410AE0734521D0D40F013DE3
:104C58004FEA510104EB43034FEA420221D09E453B
:104C68000CEB0104F0DA002C04EB010C0ADBF04633
:104C7800CEEB0303944288BF03F1FF33121B0844B1
:104C8800C646E3E7BCF1000FF1DB0EF10108EFE7E0
:104C980094421ED8002C04EB010C4EDB98460023EE
:104CA800ECE7134304D0421C4DD000F00103184434
:104CB80040087110F30701F17F5101F5001148BF59
:104CC80040F0004001EB0753024643EC102BBDE8CF
:104CD800F0819E46BAE7D10F01EB4303520092E7F9
:104CE80025F00041214326D0A5BB2F46D30A153F06
:104CF8005205002BFAD0DC0228D400215B00D80230
:104D080001F10101FAD5C1F10100C1F1200422FA33
:104D180004F4234307448A406DE710EE102A2B461B
:104D28002946FFF765F922462B46FEF7AFFF41EC0F
:104D3800100BBDE8F081BDE8F081BCF1000FA4DAEA
:104D4800F04600239AE701362846B2E720240120DE
:104D58000021DCE710EE100A22462B462946FEF712
:104D680093FF02460B46FFF76DFA41EC100BBDE8C6
:104D7800F08100BF0000F07F53EC102B10B433F02B
:104D8800004408D01149A3F58010884208D80420AF
:104D98005DF8044B70471AB902205DF8044B704760
:104DA80003F1FF43094903F5E0038B42EFD9B4F55A
:104DB800801F01D20320EBE7054B9C4201D0002065
:104DC800E6E7B2FA82F04009E2E700BFFFFFDF7FC3
:104DD8000000F07F00207047014B1868704700BF43
:104DE8004804002008B50021044600F087FA044B67
:104DF8001868C36B03B19847204601F0D7FB00BF82
:104E08002065000870B50F4E0F4D761BB61018BF01
:104E1800002405D0013455F8043B9847A642F9D13F
:104E28000A4E0B4D761B01F0B5FBB61018BF0024D7
:104E380006D0013455F8043B9847A642F9D170BD15
:104E480070BD00BFBC650008BC650008C4650008EB
:104E5800BC650008024B19687C3100F003B800BF3C
:104E6800480400202DE9F8430C46064600F0CCFA29
:104E780021468046304600F0CBFA476907F26C7746
:104E8800B907044600F0C680FA17864B83FB071360
:104E9800C2EBE3124FF4C87303FB1273B3FA83F344
:104EA8005B095A00804D134405EB031500F018FA0E
:104EB8007E4B1B6843B3D8F80430BB4205D0384654
:104EC80000F048F9002800F0B380D8F8003083B922
:104ED8003368D8F81C20934280F2AE80D8F8382086
:104EE8009342ACBF00230123236273B1D8F83C205E
:104EF8000DE03368D8F81C20934204DBD8F838203A
:104F08009342C0F2998000232362D8F82020684891
:104F18006849A66882FB008902EB0903D7174FF49A
:104F28006168C7EBE32308FB132383FB01899944DA
:104F38004FEAE378C8EB691981FB031EC9EB09192D
:104F480021689E4480FB020CA3EB8903CB1A6244C0
:104F580061682360C7EBE222C8EB6E1EB21ACEEB83
:104F680001013B2BA26061604DDD01313C3B61607A
:104F780023603B2940DD01323C39A2606160172A79
:104F88001DDDA369E1690133062BC8BF0023A361B6
:104F9800E3680131E161183A01332169A260E360F5
:104FA80055F82120934205DD01319B1A0C29E36055
:104FB80045D0216100F096F92046BDE8F883002A23
:104FC800F8DAA369E169013B48BF0623A361E368F6
:104FD80001391832013BE161A260E360002BE9D19D
:104FE8002369013B32D423619B00EB58E36000F056
:104FF80079F92046BDE8F8830029C0DA013A3C3146
:10500800A2606160BBE7002BB3DA01393C33616011
:105018002360AEE7234BFA1783FB0713C2EB631336
:10502800642101FB1373002B3FF42FAF012338E7F2
:105038004FF0FF33236268E70123236256E7636971
:105048000022013363612261E261B3E763695A1E9A
:105058000B2162619207216113D003F26B71CA17A9
:10506800104B83FB0103C2EBE3124FF4C87303FB3D
:105078001213B3FA83F35B0903F5B673E3612C23C8
:10508800B3E7084A03F26B7182FB0123CA17C2EB2C
:105098006313642000FB1313002BE1D040F26D135F
:1050A800ECE700BF1F85EB5124650008440500208C
:1050B800C5B3A2918988888870B4840746D0541EE5
:1050C800002A41D0CDB2034602E0621EE4B3144682
:1050D80003F8015B9A07F8D1032C2ED9CDB245EA23
:1050E80005250F2C45EA054519D903F11002264676
:1050F800103E0F2E42F8105C42F80C5C42F8085C37
:1051080042F8045C02F11002F2D8A4F1100222F075
:105118000F0204F00F041032032C13440DD91E465D
:105128002246043A032A46F8045BFAD8221F22F0E2
:1051380003020432134404F003042CB1C9B21C4422
:1051480003F8011BA342FBD170BC70471446034609
:10515800C2E700BF2DE9F04F83B0044600F054F9D0
:1051680040F2B1739C4240F397805949DFF86CC113
:105178004460A4F26D736FF4F66204EB020981FBDC
:105188000325DB17A3EB65136FF4C865A4F2B272AD
:1051980065194FEAA90640F26D1981FB047E09FBE7
:1051A800026981FB0521EA17E7174B44C2EBE115B9
:1051B800C7EBEE164FF4C878C7EB6E171D444FF0D7
:1051C800640E04F0030308FB16460EFB1747B6FAF5
:1051D80086F60446760900F1380E9B46237A4A2B58
:1051E8005ED0442B6DD0BBF1000F50D03346590030
:1051F800E2681944374B012A03EB011164DD02F11F
:105208008042023A4FEA820A01EB0A09A1F1040836
:105218002B4658F8042FC8451344FAD10AF1040262
:1052280001922D4A03F1040A8AFB0289D1444FEA0C
:10523800EA78C8EBA9086269C8EBC808C8EB0A0A8B
:10524800B2EB0A0A019A8A58216901F1FF3148BF75
:105258000AF1070AC1EBC1015144914202DB073947
:105268009142FCDA0B44A169226A0CFB0311114438
:1052780044F81C1F7445B1D1C369826B9342ACBF1B
:10528800002301230360012003B0BDE8F08F002F45
:105298000CBF33460123AAE7002003B0BDE8F08F16
:1052A80062695119BBF1000F07D137B13B2AD4BF4E
:1052B8000022012211444B1ED5E7002EF6D13246BA
:1052C800F8E761696B18CEE700222B460192A8E740
:1052D8001F85EB51246500089324499280510100F1
:1052E800704700BF704700BF024B13B1024800F07F
:1052F8006FB8704700000000E55300082DE9F04F33
:10530800314B83B01B68009303F5A47381460E46A6
:105318000193009BD3F8487127B3DDF804A07C689B
:10532800651E0ED4013407EB84044FF00008E6B183
:10533800D4F80031B34218D0013D6B1CA4F1040429
:10534800F5D1224B73B17B68002B36D13B68002B1B
:1053580034D03846CAF80030AFF30080DAF800706D
:10536800002FDCD103B0BDE8F08F7B682268013BD9
:10537800AB420CBF7D60C4F80080002ADCD0D7F8AF
:105388008831D7F804B00121A940194208D19047C3
:105398007B685B45BDD1DAF80030BB42CCD0B8E7BA
:1053A800D7F88C31194204D14846D4F88010904778
:1053B800EEE7D4F880009047EAE73B68BA461F4614
:1053C800002FACD1CEE700BF206500080000000028
:1053D800014600200246034600F0CAB838B5084B1B
:1053E800084DED1AAC1018BFED1805D0013C55F862
:1053F800043D9847002CF9D1BDE8384001F0D0B8F9
:10540800C4650008C86500080048704754040020B7
:1054180000684C4B4C4AF0B583FB00430344C41767
:10542800C4EB234302FB1302002A04DA02F5A83274
:1054380002F5C072013B4548454D464E80FB020EC1
:105448000EEB02004FEAE27ECEEBE02E4FF46160F5
:1054580000FB1E221C1D85FB020584FB0667D01776
:105468001544C0EB65152744E017C5EB0516C0EBDE
:10547800A700A2EB8602C0EBC000201A81E82440F6
:10548800354A364C48BF0730886182FB0320DA175B
:10549800C2EBE01204FB0233002B4FEA820202F255
:1054A800B27246DBB3F5B67F09DD2D4D40F26D14BF
:1054B8001B1B55F8044F9C4202F10102F8DDA2F2D1
:1054C8006C7048619007CB6126D0D017254C84FBBF
:1054D8000254C0EBE4104FF4C87404FB1022B2FA73
:1054E80082F25209550015442D011F4C2A590020FB
:1054F80093422544086109DB01249B1A55F8042FBF
:105508009A42204604F10104F7DD086101330022C4
:10551800CB600A620846F0BD124CD01784FB0254D7
:10552800C0EB6414642505FB1424002CCED00122A2
:10553800D8E70E4C54F804091B1802F1FF32F9D4CD
:10554800BDE700BF07452EC280510100C5B3A29137
:10555800898888889324499273B06D164BFAFFFFA7
:10556800886500081F85EB512465000894650008CC
:105578002DE9F047254C2568D5F848410646884668
:1055880092469946CCB360681F2818DC431C7EB14C
:1055980004EB80050121C5F888A0D4F8887101FAC8
:1055A80000F21743022EC4F88871C5F808911ED07E
:1055B8000230636044F820800020BDE8F087144B77
:1055C80003B34FF4C870AFF300800446D0B1D5F8E8
:1055D8004831002780E88800C5F84841384601234B
:1055E800C4F88871C4F88C71002EE1D0D0E7D4F8E3
:1055F8008C110A43C4F88C21DAE705F5A674C5F8BE
:105608004841C0E74FF0FF30BDE8F087206500084B
:1056180000000000FEE700BF3E2000000A202564CD
:105628002C2025640A0000000A20676F746F766FCB
:105638000A000000256300000A4572726F723A2062
:10564800556E6B6E6F776E20636F6D6D616E640A59
:10565800000000000A48454C503A0A0A5468697329
:1056680020697320612070726F6772616D207468A1
:10567800617420706172736573206F757220636F37
:105688006D6D616E647320776869636820636F6EFF
:1056980074726F6C207468652053544D33324634ED
:1056A800206465766963652E2057652075736520CB
:1056B80034204C45442064696F6465732C207768F6
:1056C8006963682077652063616E2073657420695B
:1056D8006E203320646966666572656E7420737423
:1056E800617465732E0000000A0A4669727374209B
:1056F800636F6D6D616E642069733A206C65642018
:1057080073204E20532E0A546869732069732061F0
:1057180020636F6D6D616E642077686963682073BC
:1057280065747320746865204E28302C20312C2035
:10573800322C2033292064696F646520696E2073D8
:105748007461746963207374617465205328302D03
:105758006F66662C20312D6F6E292E0A49662074DB
:10576800686520636F6D6D616E6420697320777260
:10577800697474656E20636F72726563746C7920E6
:1057880077652073686F756C64206765742074682A
:1057980065206D6573736167652077686963682044
:1057A80064696F6465206973207365742C20616E69
:1057B8006420696E20776869636820737461746512
:1057C8002E0A466F72206578616D706C653A0A4CD6
:1057D80045443A205B315D20697320736574206904
:1057E8006E20737461746963207374617465203109
:1057F8002E0000000A0A4E65787420636F6D6D6193
:105808006E642069733A206C65642062204E204FD4
:1058180020502E0A54686973206973206120636FD1
:105828006D6D616E64207768696368207365747351
:1058380020746865204E28302C20312C20322C20F2
:1058480033292064696F646520696E20626C696E13
:105858006B2073746174652C20616E6420746865B4
:10586800204F286D732920697320696E74657276DC
:10587800616C206F6620746865206F6E2073746198
:105888007465206F66204C45442064696F64652CFC
:1058980020616E64207468652050286D7329206922
:1058A800732066756C6C20696E74657276616C2005
:1058B800647572696E672077686963682069742007
:1058C800697320736574206669727374206F6E2F14
:1058D8006F6666206F6E63652E0A49662074686578
:1058E80020636F6D6D616E642069732077726974CF
:1058F80074656E20636F72726563746C7920776566
:105908002073686F756C64206765742074686520FF
:105918006D6573736167652077686963682064697A
:105928006F6465206973207365742C20616E642030
:10593800696E2077686963682073746174652E0ADC
:10594800466F72206578616D706C653A0A4C454403
:105958003A205B305D2069732073657420746F2072
:10596800626C696E6B207374617465206F6E20744D
:10597800696D65205B35305D6D7320616E642070E4
:105988006572696F645B3130305D6D732E000000A5
:105998000A0A4E65787420636F6D6D616E642069C4
:1059A800733A206C65642070204E20442E0A546897
:1059B8006973206973206120636F6D6D616E642067
:1059C8007768696368207365747320746865204E0E
:1059D80028302C20312C20322C2033292064696F68
:1059E800646520696E2070776D207374617465201A
:1059F8007768657265204428302D31303029206958
:105A0800732064757479206369636C65206F662000
:105A1800706572696F6420776869636820697320AC
:105A2800736574206F6E20316D7328312F313030DB
:105A380030207365636F6E64292E0A496620746886
:105A48006520636F6D6D616E64206973207772697C
:105A58007474656E20636F72726563746C792077F5
:105A6800652073686F756C64206765742074686559
:105A7800206D657373616765207768696368206462
:105A8800696F6465206973207365742C20616E6486
:105A980020696E2077686963682073746174652E65
:105AA8000A466F72206578616D706C653A0A4C45DC
:105AB800443A205B335D2069732073657420746FEA
:105AC8002070776D20737461746520696E20647529
